:020000040800F2
:1000000080060020610100087117000869140008CB
:1000100000000000000000000000000000000000E0
:10002000000000000000000000000000771700083A
:10003000000000000000000075170008C917000844
:1000400073010008730100087301000873010008C0
:1000500073010008730100087301000873010008B0
:1000600073010008730100087301000873010008A0
:100070007301000873010008730100087301000890
:1000800073010008730100080000000073010008FC
:100090007301000873010008730100087301000870
:1000A0007301000873010008730100087301000860
:1000B00073010008000000007301000800F002F85E
:1000C00000F03EF80CA030C8083824182D18671E20
:1000D000A246AB4654465D46AC4201D100F030F832
:1000E0007E460F3EB6460FCC0126334200D0FB1AA7
:1000F0003343A246AB4618470C1D00002C1D0000E0
:10010000103A02D378C878C1FAD8520701D330C860
:1001100030C101D504680C60704700000023002442
:1001200000250026103A01D378C1FBD8520700D32E
:1001300030C100D50B6070471FB51FBD10B510BD95
:1001400000F0A3F91146FFF7F7FF01F0FDFC00F006
:10015000BBF903B4FFF7F2FF03BC00F0C1F90000E4
:100160000748804707480047FEE7FEE7FEE7FEE74F
:10017000FEE7FEE704480549054A064B70470000C4
:1001800037180008BD00000880000020800600200D
:1001900080020020800200204343514330B55C18A8
:1001A000010C130C0D4692B25D4380B251432C19E1
:1001B000054655430A0C09044D1962415843010C88
:1001C00000044019514130BDFEB5044610460D46AD
:1001D000184373D0A6468C460020A41A01469D41C0
:1001E00067D36646002701243D46B61A9D4102D3D7
:1001F00013463A462124654676462F04360C3E4384
:100200002D0CB61A9D4104D3150C1B042B4312046C
:100210001034654676462F06360A3E432D0AB61A36
:100220009D4104D3150E1B022B4312020834654670
:1002300076462F0736093E432D09B61A9D4104D351
:10024000150F1B012B431201241D65467646AF078F
:10025000B6083E43AD08B61A9D4104D3950F9B00E6
:100260002B439200A41C65467646EF0776083E4372
:100270006D08B61A9D411AD392185B41641C16E0B2
:100280000018764665464941B71A9D410191009094
:1002900009D36046B11A98418E4684460098019968
:1002A0000025401C6941DD0752082A435B08641E93
:1002B000E6D57246634603B0F0BDFFE7204628430B
:1002C00007D00020C0430146C046C04622462B4608
:1002D000F1E700200146F7E701E004C0091F042907
:1002E000FBD28B0701D50280801CC90700D00270A9
:1002F000704700290BD0C30702D00270401C491E72
:10030000022904D3830702D50280801C891EE3E7FB
:100310000022EEE70022DFE7002203098B422CD304
:10032000030A8B4211D300239C464EE003460B4345
:100330003CD4002243088B4231D303098B421CD3A7
:10034000030A8B4201D394463FE0C3098B4201D399
:10035000CB01C01A524183098B4201D38B01C01AD1
:10036000524143098B4201D34B01C01A5241030948
:100370008B4201D30B01C01A5241C3088B4201D3F7
:10038000CB00C01A524183088B4201D38B00C01AA4
:10039000524143088B4201D34B00C01A5241411ACB
:1003A00000D201465241104670475DE0CA0F00D0AE
:1003B0004942031000D3404253409C4600220309A7
:1003C0008B422DD3030A8B4212D38901FC2212BA2D
:1003D000030A8B420CD3890192118B4208D3890105
:1003E00092118B4204D389013AD0921100E089091D
:1003F000C3098B4201D3CB01C01A524183098B42FE
:1004000001D38B01C01A524143098B4201D34B01E6
:10041000C01A524103098B4201D30B01C01A524149
:10042000C3088B4201D3CB00C01A524183088B42D0
:1004300001D38B00C01A5241D9D243088B4201D359
:100440004B00C01A5241411A00D201465241104697
:1004500063465B1001D34042002B00D549427047F0
:1004600063465B1000D3404201B50549002802DC19
:10047000491C084000E00846C046C04602BD00BF17
:10048000FFFFFF7F704770477047754600F024F804
:10049000AE46050069465346C008C000854618B000
:1004A00020B5FFF767FE60BCB64600260027C0C532
:1004B000C0C5C0C5C0C5C0C5C0C5C0C5C0C5403D1C
:1004C000490849008D46704710B50446C046C046ED
:1004D0002046FFF73EFE10BD004870471000002088
:1004E00001491820ABBEFEE726000200704781B02C
:1004F00001466846017001780A090A2050430F221C
:1005000011404018C0B201B0704780B584B003A953
:100510000091087001F02CF8D02001F06DF80098DF
:10052000007801F069F801F023F8D12001F064F8B7
:1005300000F09CFF02A90191087001F03BF80198BE
:10054000007804B080BD80B582B00420FFF7DDFFE5
:10055000014601A801700078FFF7C9FF02B080BD15
:1005600080B582B00320FFF7D0FF014601A80170DB
:100570000078FFF7BCFF02B080BD80B584B00220D8
:10058000FFF7C3FF014603A801700078400600286A
:1005900022D5FFE703A800788006002805D5FFE7ED
:1005A00003980C3003A90870FFE703A802900178B4
:1005B0003F22114001700078FFF799FF0246029830
:1005C0000399891801700078182804D1FFE703A95E
:1005D00000200870FFE70BE003A8019001783F229C
:1005E000114001700078FFF782FF01990870FFE762
:1005F00003A8007804B080BD80B582B00120FFF769
:1006000084FF014601A8009001700078FFF76FFF9A
:10061000014600980170007802B080BD80B582B0BC
:100620000520FFF772FF014601A801700078FFF76F
:100630005EFF02B080BD80B582B00190FFF7DCFFA5
:100640000199087000BF00BFFFF797FF019948703C
:1006500000BF00BFFFF784FF0199887000BF00BF93
:10066000FFF771FF0199C87000BF00BFFFF7D6FF09
:100670000199087100BF00BF00F006F801994871A8
:1006800000BF00BF02B080BD80B582B00620FFF77A
:100690003CFF014601A801700078FFF728FF02B077
:1006A00080BD81B0EFF3108072B60090FFE7FEE7E7
:1006B00080B584B0039000F0BDF9029003980190DA
:1006C0000198401C002806D0FFE7E0480178019817
:1006D00040180190FFE7FFE700F0ACF90299401ADB
:1006E0000199884201D2FFE7F6E704B080BDC04619
:1006F0008BB00A90099100200890FFE709980068E4
:100700000899C840002800D152E109980068089A69
:1007100001219140084007900798002800D143E14B
:100720000998406803210840012807D0FFE709988D
:1007300040680321084002282CD1FFE70A9880680E
:10074000069008984000032181400698884306904F
:100750000998C168089840008140069808430690AF
:1007600006980A9988600A984068069008980121BE
:1007700081400698884306900998406810210840F7
:1007800001090898814006980843069006980A993E
:100790004860FFE70998406803210840032816D005
:1007A000FFE70A98C068069008984000032181403E
:1007B000069888430690099881680898400081400F
:1007C00006980843069006980A99C860FFE70998BA
:1007D000406803210840022820D1FFE70A980899C1
:1007E000C90889004018006A069008984007C00EA2
:1007F0000F2181400698884306900998016908985E
:100800004007C00E814006980843069006980A9952
:10081000089AD208920089180862FFE70A980068CF
:10082000069008984100032002468A4006999143A9
:10083000069109994968014008984000814006984E
:100840000843069006980A990860099880798007FD
:10085000002800D1A7E0FFE7AD48026801210A4364
:1008600002600068084005900598FFE7089803219A
:10087000884350494058069008988007000F0F2180
:1008800081400698884306900A980921C906884243
:1008900003D1FFE70020049022E00A9846498842ED
:1008A00003D1FFE70120039017E00A9843498842EB
:1008B00003D1FFE7022002900CE00A99404A03208E
:1008C000052300939142019001D000980190019876
:1008D0000290FFE702980390FFE703980490FFE778
:1008E000049908988007000F8140069808430690F5
:1008F00006980899032291432E4A8850314800688F
:100900000690079906988843069009988079C00652
:10091000002805D5FFE70799069808430690FFE7EA
:1009200006982849086028480068069007990698A4
:1009300088430690099880798006002805D5FFE74E
:100940000799069808430690FFE706981E49086035
:100950001E480068069007990698884306900998F3
:1009600080798007002805D5FFE707990698084396
:100970000690FFE70698154908601548006806903C
:10098000079906988843069009988079C00700283F
:1009900005D0FFE70799069808430690FFE70698F9
:1009A0000B490860FFE7FFE70898401C0890A5E6A0
:1009B0000BB07047080001400004004800080048E0
:1009C000000C0048080401400C04014004040140EC
:1009D0000004014084B0009101460098039102A9EF
:1009E0000880039800690988084204D0FFE701A93C
:1009F0000120087003E001A900200870FFE701A8AA
:100A0000007804B0704783B0029001A80180684666
:100A100002700078002805D0FFE701A8008802993D
:100A2000886104E001A8008802998862FFE703B0AA
:100A300070470000064800687047C04625480278A5
:100A400003490868801808607047C0460400002009
:100A50007C00002080B5A34908681022104308607C
:100A6000032000F005F800F039F8002080BDC046F2
:100A700080B584B002909E480068019015480178C6
:100A80007D20C000FFF748FC01460198FFF744FCB9
:100A900000F0E2FC002804D0FFE703A90120087061
:100AA00014E00298032809D8FFE702990022D043F6
:100AB00000F032F802980849086003E003A9012019
:100AC000087003E003A900200870FFE703A800787E
:100AD00004B080BD040000200800002082B0FFE7C1
:100AE0000B48026801210A43026000680840019037
:100AF0000198FFE7FFE707480268012109070A4359
:100B000002600068084000900098FFE702B070475C
:100B1000181002401C10024080B584B0034603A8A0
:100B200003700291019200214056029900F0BEFE2E
:100B300004B080BD80B584B0029001910298002875
:100B400004D1FFE703A901200870C7E001986549B7
:100B5000096801221140884212D9FFE76148026802
:100B600001218A43019B1A430260006808400199F1
:100B7000884204D0FFE703A901200870AEE0FFE738
:100B8000029800788007002816D5FFE702980078C1
:100B90004007002807D5FFE77D49086807221202B1
:100BA00010430860FFE77A490868F0229043029AF0
:100BB000926810430860FFE702980078C007002899
:100BC00050D0FFE70298406801280BD1FFE7464864
:100BD00000688003002804D4FFE703A901200870FF
:100BE0007CE01BE00298406802280BD1FFE73E48FA
:100BF00000688001002804D4FFE703A901200870E1
:100C00006CE00AE0384800688007002804D4FFE759
:100C100003A90120087061E0FFE7FFE75C4908686D
:100C200003229043029A526810430860FFF702FFC4
:100C30000090FFE7564800680C2108400299496877
:100C4000890088420DD0FFE7FFF7F4FE0099401AB3
:100C50002849884204D3FFE703A9032008703DE038
:100C6000E8E7FFE701981F4909680122114088421F
:100C700012D2FFE71B48026801218A43019B1A43F5
:100C80000260006808400199884204D0FFE703A988
:100C90000120087022E0FFE7029800784007002852
:100CA0000AD5FFE73A490868072212029043029AE0
:100CB000D26810430860FFE700F01EF83449096865
:100CC000C9B20A090949895CC8400949086003207A
:100CD000FFF7CEFE03A900200870FFE703A8007805
:100CE00004B080BD00200240001002409A1D0008A0
:100CF000000000208913000080B586B00020059018
:100D00000490039002900190214800680590059896
:100D10000C2108400090002832D0FFE700980428FA
:100D200004D0FFE70098082803D02AE01D4801906E
:100D30002AE005990F20820411408A0C1549895C2C
:100D400002911549096801401448405C049005A8C7
:100D50008078C00700280BD0FFE7049A11480023D1
:100D60001946FFF731FA029AFFF716FA039004E0EA
:100D700002990B4848430390FFE70398019003E072
:100D8000FFE708480190FFE7019806B080BDC04624
:100D900004100240AA1D00082C100240BA1D0008D1
:100DA00000093D0000127A0080B588B006900698D0
:100DB000002804D1FFE707A90120087036E3069850
:100DC0000078C007002800D193E0FE4800680C219D
:100DD000084004280DD0FFE7FA4800680C210840BD
:100DE000082816D1FFE7F7480068C003002810D58F
:100DF000FFE7F74800688003002809D5FFE7069859
:100E00004068002804D1FFE707A9012008700DE31E
:100E10006EE0FFE706984068012807D1FFE7EC493C
:100E2000086801221204104308602CE0069840680C
:100E300000280BD1FFE7E649086801221304984314
:100E4000086008689204904308601BE006984068B8
:100E500005280BD1FFE7DE490868012293041843F7
:100E6000086008681204104308600AE0D84908685E
:100E700001221304984308600868920490430860B4
:100E8000FFE7FFE7FFE7FFE706984068002817D075
:100E9000FFE7FFF7CFFD0590FFE7CD48006880032F
:100EA00000280CD4FFE7FFF7C5FD0599401A652817
:100EB00004D3FFE707A903200870B7E2EDE716E0C7
:100EC000FFF7B8FD0590FFE7C148006880030028E0
:100ED0000CD5FFE7FFF7AEFD0599401A652804D34E
:100EE000FFE707A903200870A0E2EDE7FFE7FFE7AF
:100EF000FFE7069800788007002876D5FFE7B1481D
:100F000000680007800F00280DD0FFE7AD4800689B
:100F10000C210840082820D1FFE7AA480068C00338
:100F200000281AD4FFE7AA4800688007002809D5DE
:100F3000FFE70698C068012804D0FFE707A9012051
:100F4000087073E2A2490868F8229043069A126971
:100F5000D20010430860FFE746E00698C06800280A
:100F600025D0FFE79A490868012210430860FFF77F
:100F700061FD0590FFE796480068800700280CD4C3
:100F8000FFE7FFF757FD0599401A032804D3FFE751
:100F900007A90320087049E2EDE78D490868F822A7
:100FA0009043069A1269D200104308601BE08849FA
:100FB0000868012290430860FFF73CFD0590FFE7B9
:100FC00083480068800700280CD5FFE7FFF732FD53
:100FD0000599401A032804D3FFE707A903200870E6
:100FE00024E2EDE7FFE7FFE7FFE706980078000758
:100FF00000283ED5FFE70698C06900281CD0FFE70F
:1010000074490868012210430860FFF713FD05903A
:10101000FFE770480068800700280CD4FFE7FFF75F
:1010200009FD0599401A032804D3FFE707A9032007
:101030000870FBE1EDE71BE0664908680122904378
:101040000860FFF7F7FC0590FFE7FC4800688007A1
:1010500000280CD5FFE7FFF7EDFC0599401A03289F
:1010600004D3FFE707A903200870DFE1EDE7FFE7FE
:10107000FFE7069800784007002800D4BBE002A9EB
:1010800000200870EE480068C000002810D4FFE778
:10109000FFE7EB480268012109070A430260006884
:1010A000084001900198FFE702A901200870FFE7BE
:1010B000E4480068C00500281DD4FFE7E14908683E
:1010C0000122120210430860FFF7B4FC0590FFE70D
:1010D000DC480068C00500280CD4FFE7FFF7AAFC35
:1010E0000599401A652804D3FFE707A90320087073
:1010F0009CE1EDE7FFE7FFE706988068012806D14D
:10110000FFE7D149086801221043086029E00698EA
:10111000806800280AD1FFE7CB4908680122904384
:101120000860086804229043086019E00698806807
:1011300005280AD1FFE7C449086804221043086063
:10114000086801221043086009E0BF4908680122CD
:10115000904308600868042290430860FFE7FFE7B7
:10116000FFE7FFE706988068002818D0FFE7FFF741
:1011700061FC0590FFE7B4480068800700280DD4A3
:10118000FFE7FFF757FC0599401AB049884204D39E
:10119000FFE707A90320087048E1ECE71EE0FFF72E
:1011A00049FC0590FFE7A84800688007002814D58F
:1011B000FFE7FFF73FFC0599401AA44988420BD38B
:1011C00002E0C0460410024007A9032008702DE188
:1011D0000010024024100240E5E7FFE702A8007873
:1011E000012807D1FFE796490868012212079043BA
:1011F0000860FFE7FFE706980078C006002864D57E
:10120000FFE706984069012829D1FFE7904908685F
:101210000422104308600868012210430860FFF7A9
:1012200009FC0590FFE78A480068800700280CD475
:10123000FFE7FFF7FFFB0599401A032804D3FFE7F8
:1012400007A903200870F1E0EDE781490868F8225A
:101250009043069A9269D2001043086034E00698E1
:101260004069401D00280ED1FFE779490868042233
:10127000904308600868F8229043069A9269D20069
:10128000104308601FE07249086804221043086098
:101290000868012290430860FFF7CCFB0590FFE748
:1012A0006B480068800700280CD5FFE7FFF7C2FBFA
:1012B0000599401A032804D3FFE707A90320087003
:1012C000B4E0EDE7FFE7FFE7FFE70698006A0028D4
:1012D00000D1A7E0574800680C210840082871D0C9
:1012E000FFE70698006A02284ED1FFE752490868D6
:1012F0000122120690430860FFF79CFB0590FFE770
:101300004D480068800100280CD5FFE7FFF792FBED
:101310000599401A032804D3FFE707A903200870A2
:1013200084E0EDE7FFE74B4908680F229043069AF7
:10133000D26A104308603F4908683D221204904376
:10134000069B9A6A5B6A1A4310430860FFE73A49B2
:1013500008680122120610430860FFF76BFB059036
:10136000FFE735480068800100280CD4FFE7FFF74D
:1013700061FB0599401A032804D3FFE707A903205E
:10138000087053E0EDE71CE02B49086801221206C3
:1013900090430860FFF74EFB0590FFE72648006882
:1013A000800100280CD5FFE7FFF744FB0599401AA0
:1013B000032804D3FFE707A90320087036E0EDE710
:1013C000FFE72EE00698006A012804D1FFE707A98D
:1013D000012008702AE01748006804901D48006842
:1013E000039004980121090408400699496A88423B
:1013F00011D1FFE703980F2108400699C96A884276
:1014000009D1FFE704980F21890408400699896AE9
:10141000884204D0FFE707A90120087006E0FFE733
:10142000FFE7FFE707A900200870FFE707A800789B
:1014300008B080BD04100240001002402410024099
:101440001C10024000700040201002408913000070
:10145000341002402C10024080B582B001900198F7
:1014600000F08AF902B080BDFFE7FEE780B58AB0E0
:1014700009A9069100200790087008A908700120AA
:1014800000F054F8069907980870FFE709A800785B
:10149000072827DCFFE7B54805904021049100228A
:1014A000FFF7B1FA049905980122FFF7ACFA059805
:1014B00000BF00BF00BF00BF0899490008AA117013
:1014C0008021FFF787FA012806D1FFE7089801215C
:1014D000084308A90870FFE7FFE70998401C09A91D
:1014E0000870D3E7A14801904021029100220092A8
:1014F000FFF789FA009800F019F80198802101227D
:101500000392FFF780FA009A01980299FFF77BFA9D
:1015100001980299039AFFF776FA00BF00BF00BF57
:1015200000BF08A800780AB080BDC04680B586B06C
:10153000014605A8017000210491039102910191D7
:101540000091802100910078012804D1FFE700205C
:101550000190029006E011200190012002900020ED
:101560000390FFE781486946FFF7C2F806B080BDE7
:1015700080B586B07D4803904021049101220192FC
:10158000FFF741FA019A039880210291FFF73BFA95
:101590000299039800220592FFF735FA03980499FF
:1015A000059AFFF730FA00BF00BF00BF00BF06B0CA
:1015B00080BDC04680B586B06C4803904021029142
:1015C00000220192FFF71FFA019A039880210491EB
:1015D000FFF719FA0299039801220592FFF713FA0F
:1015E00003980499059AFFF70EFA00BF00BF00BFE9
:1015F00000BF06B080BDC04680B588B007A908709E
:1016000006A900200870079A05AB1A700870FFE75A
:1016100006A8007807282CDCFFE705A8007800065C
:10162000002806D5FFE7514880210122FFF7EBF99A
:1016300005E04E4880210022FFF7E5F9FFE7059815
:10164000400005A9087049480390402104910122F7
:10165000FFF7D9F90398049900BF00BF00BF00BF8E
:101660000022FFF7D0F9FFE70698401C06A9087092
:10167000CEE73E480190402102910122FFF7C3F9D5
:10168000019802990022FFF7BEF900BF00BF00BF1A
:1016900000BF08B080BDC046B0B590B000200F902C
:1016A0000E900D900C900B90FFE72F4802680121DF
:1016B000C9040A430260006808400A900A98FFE7DC
:1016C000FFE729480268012149040A4302600068D3
:1016D000084009900998FFE7FFE7234802680121C5
:1016E00089040A4302600068084008900898FFE7F0
:1016F000CA4801900721009100220592FFF783F963
:10170000059A0920C0060390F0252946FFF77BF9CA
:1017100016480690C021049101242246FFF773F970
:10172000009A019805990B920C940D910321029156
:101730000E910BA90791FEF7DBFF029A0398059B18
:1017400007990B950C940D930E92FEF7D1FF049B15
:10175000059A069807990B9311230C930D920E92FC
:10176000FEF7C6FF10B0B0BD1410024000040048E0
:10177000FFE7FEE77047704780B584B0029002989B
:10178000401E000E002803D0FFE70120039011E067
:101790000298401E0949086000200190C0430321BF
:1017A00000F084F8019806490860064A0721116094
:1017B0000390FFE7039804B080BDC04614E000E04A
:1017C00018E000E010E000E080B5FFF737F980BDD9
:1017D00010B592B006A801903021FEF79BFD01984C
:1017E00000210591049103910291022306930122A5
:1017F000099210240A940E930F91D2041092119121
:10180000FFF7D2FA002803D0FFE7FEF74AFFFFE711
:10181000072002900220039080200490002105916F
:1018200002A8FFF787F9002803D0FFE7FEF739FF8A
:10183000FFE712B010BD7047B0B58AB0014609A8E5
:101840000170194C21680F22114006AD29700178F2
:10185000F020014008A801700999090107AA019226
:1018600011700078297808432060E3480390042130
:10187000049101220292FFF7C6F80398049900220E
:101880000592FFF7C0F8019B029A039804991B7810
:101890002D782B432360FFF7B6F803980499059A37
:1018A000FFF7B1F80AB0B0BD1400004870B582B0BF
:1018B000024601A80270009100214056002816D46B
:1018C000FFE7002401A908570322D3431840174A11
:1018D000805809578C07E50EFF24AC40A043009CBC
:1018E000A401E4B2AC402043194088501AE001A999
:1018F00008780F24204008380322D34318400A4AAE
:101900008058002549578D07EE0EFF25B540A843A6
:10191000009DAD01EDB2B540284321400839194082
:101920008850FFE702B070BD1CED00E000E400E06D
:1019300080B58AB009900998C0780A210591FEF710
:10194000EBFC00F0D7F9059906AA049210700998EB
:10195000C078FEF7E1FC084600F0CCF9049A05993E
:1019600050702F200190907009980079FEF7D4FCF8
:1019700000F0C0F9049A0599D07009980079FEF733
:10198000CBFC084600F0B6F90499024601980A71AA
:1019900048710220029000F0ADF90499887100208E
:1019A00000F0A8F9049A0599D07109984079FEF7DA
:1019B000B3FC00F09FF9049A0599107209984079D8
:1019C000FEF7AAFC084600F095F9049A0146029831
:1019D0005172012100F0F4F80998807800F020F8A5
:1019E0002020039000F034F9039800F031F90498B6
:1019F000059900F003F90AB080BD000080B582B0FF
:101A00009C48012101910022FEF7FDFF0198FFF79C
:101A100013FF00F0BDF902B080BDC04600080048C9
:101A200080B582B0014601A801700078401E009088
:101A3000062836D80098810001A040588746C04645
:101A40005D1A0008671A0008711A00087B1A00085E
:101A5000851A00088F1A0008991A000818480321EF
:101A600000F0CCF81DE01548032100F0C7F818E09D
:101A70001148032100F0C2F813E00E48032100F0E2
:101A8000BDF80EE00A48032100F0B8F809E0074865
:101A9000032100F0B3F804E00348032100F0AEF89E
:101AA000FFE702B080BDC046E51D0008E91D000843
:101AB000DD1D0008ED1D0008CA1D0008D91D000825
:101AC000E11D000880B584B06A48019001210291AF
:101AD00000220392FEF797FF0198039A0221FEF776
:101AE00092FF0198039A04210091FEF78CFF009960
:101AF0000198039AFEF787FF029A0920C006202169
:101B0000FEF781FF00990198039AFEF77CFF00F031
:101B10003FF92820FFF790FE00F03AF9019802996A
:101B2000039AFEF770FF0E20FFF786FE00F030F9F3
:101B300001980299039AFEF766FF0620FFF77CFEE4
:101B400000F026F904B080BD80B584B00020039079
:101B5000FEF780FFFFF73CFEFFF79EFDFFF7B2FFA9
:101B6000FFF74CFF2020029000F072F8029800F07E
:101B70006FF8442000F06CF80E480A2100F03EF89F
:101B80000220012100F01CF80B48102100F036F86B
:101B90007D208000FEF78CFDFFF730FFFFE7074850
:101BA0000190FEF748FD019800F066F80198FFF7F4
:101BB000BFFEF4E7CE1D0008F11D000870000020F4
:101BC00080B584B003AA107002A801700398800148
:101BD000029940183F3001A9009108702548012161
:101BE0000022FEF710FF00980078FFF725FE00F0B6
:101BF000CFF804B080BDC0460008004880B584B06E
:101C0000039002A8017001A900200870FFE701A855
:101C1000007802A90978884218DAFFE7039801A939
:101C20000978405C012807DBFFE7039801A90978E0
:101C3000405C00F00DF803E0202000F009F8FFE719
:101C4000FFE70198401C01A90870E0E704B080BDDF
:101C500080B582B001A900910870064801221146A2
:101C6000FEF7D1FE00980078FFF7E6FD00F090F84F
:101C700002B080BD0008004880B586B00590059888
:101C800040780A210091FEF747FB00F033F80099F5
:101C900003AA0292107005984078FEF73DFB0846B3
:101CA00000F028F80099029A50703A209070059838
:101CB0000078FEF731FB00F01DF80099029AD07011
:101CC00005980078FEF728FB084600F013F8029903
:101CD000087101210846FFF773FF20200190FFF7EC
:101CE000B7FF0198FFF7B4FF02980521FFF786FFC1
:101CF00006B080BD82B0014601A801700078009056
:101D0000092841D80098810001A040588746C04664
:101D1000391D0008411D0008491D0008511D00081B
:101D2000591D0008611D0008691D0008711D00088B
:101D3000791D0008811D000801A93020087023E0EA
:101D400001A9312008701FE001A9322008701BE0B2
:101D500001A93320087017E001A93420087013E0AE
:101D600001A9352008700FE001A9362008700BE0AA
:101D700001A93720087007E001A93820087003E0A6
:101D800001A939200870FFE701A8007802B0704768
:101D900080B50120FEF78CFC80BD00000000000033
:101DA00000000102030406070809020304050607F0
:101DB00008090A0B0C0D0E0F101001020304050692
:101DC0000708090A0B0C0D0E0F1057656400656DAE
:101DD0006F206F66207468650054756500467269EF
:101DE000004D6F6E0053756E00536172005468753C
:101DF0000032783136204C434420446973706C6162
:101E000079000000281E00080000002010000000DB
:101E100000010008381E00081000002070060000B5
:101E20001C0100080000000000127A000100000000
:081E30000400000000000000A6
:04000005080000BD32
:00000001FF
